:020000040800F2
:1000000000000220251B0008ED180008F318000866
:10001000F9180008FF180008051900080000000082
:10002000000000000000000000000000A1A3000884
:100030000B19000800000000F1A50008F56C00088D
:10004000751B0008751B0008751B0008751B000850
:10005000751B0008751B0008751B0008751B000840
:10006000751B0008751B0008751B0008751B000830
:10007000751B0008751B0008751B0008751B000820
:10008000751B0008751B0008751B0008751B000810
:10009000751B0008751B0008751B0008751B000800
:1000A000191900082D1900084119000855190008F0
:1000B00069190008751B0008751B0008751B0008EE
:1000C000751B0008751B0008751B0008751B0008D0
:1000D000751B00087D190008751B0008751B0008BA
:1000E000751B0008751B0008751B0008751B0008B0
:1000F000751B0008751B0008751B0008751B0008A0
:10010000751B0008751B0008751B0008751B00088F
:10011000751B0008751B000891190008751B000865
:10012000A5190008751B0008751B0008B9190008FF
:10013000751B0008CD190008751B0008751B000809
:10014000751B0008751B0008751B0008751B00084F
:10015000751B0008751B0008751B0008751B00083F
:10016000751B0008751B0008751B0008751B00082F
:10017000751B0008751B0008751B000800000000B7
:08018000751B0008751B000847
:1001900010B5054C237833B9044B13B10448AFF3C1
:1001A00000800123237010BD00000020000000002B
:1001B0000019020808B5034B1BB103490348AFF30C
:1001C000008008BD000000000400002000190208A3
:1001D000034613F8012B002AFBD1181A0138704787
:1001E00001F0FF01102A2BDB10F0070F08D010F8E8
:1001F000013B013A8B422DD010F0070F42B3F6D1EC
:10020000F0B441EA012141EA014122F007047FF004
:1002100000070023F0E80256083C85EA010586EA5B
:10022000010685FA47F5A3FA87F586FA47F6A5FA97
:1002300087F68EB9EED1F0BC01F0FF0102F00702A3
:1002400032B110F8013B013A83EA010313B1F8D14E
:100250000020704701387047002D06BF354603382F
:10026000073815F0010F07D1013015F4807F02BF68
:10027000013015F4C03F0130F0BC0138704700BFB9
:1002800081F0004102E000BF83F0004330B54FEA47
:1002900041044FEA430594EA050F08BF90EA020FB4
:1002A0001FBF54EA000C55EA020C7FEA645C7FEA47
:1002B000655C00F0E2804FEA5454D4EB5555B8BF6A
:1002C0006D420CDD2C4480EA020281EA030382EADB
:1002D000000083EA010180EA020281EA0303362D6D
:1002E00088BF30BD11F0004F4FEA01314FF4801C40
:1002F0004CEA113102D0404261EB410113F0004F52
:100300004FEA03334CEA133302D0524263EB430308
:1003100094EA050F00F0A780A4F10104D5F1200EA6
:100320000DDB02FA0EFC22FA05F2801841F1000101
:1003300003FA0EF2801843FA05F359410EE0A5F1D5
:1003400020050EF1200E012A03FA0EFC28BF4CF006
:10035000020C43FA05F3C01851EBE37101F00045BC
:1003600007D54FF0000EDCF1000C7EEB00006EEBC9
:100370000101B1F5801F1BD3B1F5001F0CD3490853
:100380005FEA30004FEA3C0C04F101044FEA4452AA
:1003900012F5800F80F09A80BCF1004F08BF5FEA31
:1003A000500C50F1000041EB045141EA050130BD11
:1003B0005FEA4C0C404141EB0101013C28BFB1F523
:1003C000801FE9D291F0000F04BF01460020B1FA6E
:1003D00081F308BF2033A3F10B03B3F120020CDA41
:1003E0000C3208DD02F1140CC2F10C0201FA0CF01F
:1003F00021FA02F10CE002F11402D8BFC2F1200C84
:1004000001FA02F120FA0CFCDCBF41EA0C01904039
:10041000E41AA2BF01EB0451294330BD6FEA040482
:100420001F3C1CDA0C340EDC04F11404C4F120026D
:1004300020FA04F001FA02F340EA030021FA04F37F
:1004400045EA030130BDC4F10C04C4F1200220FAD6
:1004500002F001FA04F340EA0300294630BD21FA14
:1004600004F0294630BD94F0000F83F4801306BFDA
:1004700081F480110134013D4EE77FEA645C18BFCE
:100480007FEA655C29D094EA050F08BF90EA020F65
:1004900005D054EA000C04BF1946104630BD91EA5D
:1004A000030F1EBF0021002030BD5FEA545C05D160
:1004B0004000494128BF41F0004130BD14F580049F
:1004C0003CBF01F5801130BD01F0004545F0FE4113
:1004D00041F470014FF0000030BD7FEA645C1ABF48
:1004E000194610467FEA655C1CBF0B46024650EA7F
:1004F000013406BF52EA033591EA030F41F40021AB
:1005000030BD00BF90F0000F04BF0021704730B530
:100510004FF4806404F132044FF000054FF0000105
:1005200050E700BF90F0000F04BF0021704730B5C6
:100530004FF4806404F1320410F0004548BF40429B
:100540004FF000013EE700BF42004FEAE2014FEAF0
:1005500031014FEA02701FBF12F07F4393F07F4FCB
:1005600081F06051704732F07F4208BF704793F0CE
:100570007F4F04BF41F40021704730B54FF46074E1
:1005800001F0004521F000411CE700BF50EA0102E4
:1005900008BF704730B54FF000050AE050EA01028D
:1005A00008BF704730B511F0004502D5404261EBFD
:1005B00041014FF4806404F132045FEA915C3FF43E
:1005C000D8AE4FF003025FEADC0C18BF03325FEADB
:1005D000DC0C18BF033202EBDC02C2F1200300FA8C
:1005E00003FC20FA02F001FA03FE40EA0E0021FAB1
:1005F00002F11444BDE600BF70B54FF0FF0C4CF49F
:10060000E06C1CEA11541DBF1CEA135594EA0C0F50
:1006100095EA0C0F00F0DEF82C4481EA030621EA8B
:100620004C5123EA4C5350EA013518BF52EA0335C6
:1006300041F4801143F4801338D0A0FB02CE4FF078
:100640000005E1FB02E506F00042E0FB03E54FF0A8
:100650000006E1FB03569CF0000F18BF4EF0010EA0
:10066000A4F1FF04B6F5007F64F5407404D25FEA9C
:100670004E0E6D4146EB060642EAC62141EA55514F
:100680004FEAC52040EA5E504FEACE2EB4F1FD0C91
:1006900088BFBCF5E06F1ED8BEF1004F08BF5FEA0F
:1006A000500E50F1000041EB045170BD06F00046C1
:1006B00046EA010140EA020081EA0301B4EB5C046E
:1006C000C2BFD4EB0C0541EA045170BD41F4801166
:1006D0004FF0000E013C00F3AB8014F1360FDEBF8B
:1006E000002001F0004170BDC4F10004203C35DA67
:1006F0000C341BDC04F11404C4F1200500FA05F3EA
:1007000020FA04F001FA05F240EA020001F000428A
:1007100021F0004110EBD37021FA04F642EB060100
:100720005EEA430E08BF20EAD37070BDC4F10C042A
:10073000C4F1200500FA04F320FA05F001FA04F2EE
:1007400040EA020001F0004110EBD37041F10001DA
:100750005EEA430E08BF20EAD37070BDC4F12005E5
:1007600000FA05F24EEA020E20FA04F301FA05F24D
:1007700043EA020321FA04F001F0004121FA04F2F5
:1007800020EA020000EBD3705EEA430E08BF20EAC5
:10079000D37070BD94F0000F0FD101F000464000FF
:1007A00041EB010111F4801F08BF013CF7D041EA81
:1007B000060195F0000F18BF704703F00046520085
:1007C00043EB030313F4801F08BF013DF7D043EA56
:1007D0000603704794EA0C0F0CEA135518BF95EA0C
:1007E0000C0F0CD050EA410618BF52EA4306D1D193
:1007F00081EA030101F000414FF0000070BD50EAB2
:10080000410606BF1046194652EA430619D094EA3B
:100810000C0F02D150EA013613D195EA0C0F05D125
:1008200052EA03361CBF104619460AD181EA030179
:1008300001F0004141F0FE4141F470014FF0000031
:1008400070BD41F0FE4141F4780170BD70B54FF0CC
:10085000FF0C4CF4E06C1CEA11541DBF1CEA13554C
:1008600094EA0C0F95EA0C0F00F0A7F8A4EB05042E
:1008700081EA030E52EA03354FEA013100F0888025
:100880004FEA03334FF0805545EA131343EA1263EE
:100890004FEA022245EA111545EA10654FEA0026A3
:1008A0000EF000419D4208BF964244F1FD0404F55C
:1008B000407402D25B084FEA3202B61A65EB0305B8
:1008C0005B084FEA32024FF480104FF4002CB6EB75
:1008D000020E75EB030E22BFB61A754640EA0C00F5
:1008E0005B084FEA3202B6EB020E75EB030E22BF35
:1008F000B61A754640EA5C005B084FEA3202B6EB76
:10090000020E75EB030E22BFB61A754640EA9C0034
:100910005B084FEA3202B6EB020E75EB030E22BF04
:10092000B61A754640EADC0055EA060E18D04FEAC2
:10093000051545EA16754FEA06164FEAC30343EA62
:1009400052734FEAC2025FEA1C1CC0D111F4801F2F
:100950000BD141EA00014FF000004FF0004CB6E728
:1009600011F4801F04BF01430020B4F1FD0C88BFC7
:10097000BCF5E06F3FF6AFAEB5EB030C04BFB6EBD2
:10098000020C5FEA500C50F1000041EB045170BDC5
:100990000EF0004E4EEA113114EB5C04C2BFD4EBF2
:1009A0000C0541EA045170BD41F480114FF0000E76
:1009B000013C90E645EA060E8DE60CEA135594EAF2
:1009C0000C0F08BF95EA0C0F3FF43BAF94EA0C0FF5
:1009D0000AD150EA01347FF434AF95EA0C0F7FF46A
:1009E00025AF104619462CE795EA0C0F06D152EABE
:1009F00003353FF4FDAE1046194622E750EA4106A2
:100A000018BF52EA43067FF4C5AE50EA41047FF4B2
:100A10000DAF52EA43057FF4EBAE12E74FF0FF3C17
:100A200006E000BF4FF0010C02E000BF4FF0010CE8
:100A30004DF804CD4FEA410C7FEA6C5C4FEA430C61
:100A400018BF7FEA6C5C1BD001B050EA410C0CBFB0
:100A500052EA430C91EA030F02BF90EA020F002012
:100A6000704710F1000F91EA030F58BF994208BF79
:100A700090422CBFD8176FEAE37040F00100704736
:100A80004FEA410C7FEA6C5C02D150EA013C07D18D
:100A90004FEA430C7FEA6C5CD6D152EA033CD3D0D8
:100AA0005DF8040B704700BF8446104662468C46D2
:100AB0001946634600E000BF01B5FFF7B7FF002805
:100AC00048BF10F1000F01BD4DF808EDFFF7F4FF2E
:100AD0000CBF012000205DF808FB00BF4DF808EDB9
:100AE000FFF7EAFF34BF012000205DF808FB00BFDC
:100AF0004DF808EDFFF7E0FF94BF012000205DF8FE
:100B000008FB00BF4DF808EDFFF7CEFF94BF0120B2
:100B100000205DF808FB00BF4DF808EDFFF7C4FFAB
:100B200034BF012000205DF808FB00BF4FEA410CF4
:100B30007FEA6C5C02D150EA013C0AD14FEA430CD7
:100B40007FEA6C5C02D152EA033C02D14FF0000014
:100B500070474FF0010070474FEA410212F5001252
:100B600015D211D56FF47873B3EB625212D94FEAF4
:100B7000C12343F0004343EA505311F0004F23FADE
:100B800002F018BF404270474FF00000704750EA33
:100B9000013005D111F0004008BF6FF000407047F0
:100BA0004FF00000704700BF4FEA4102B2F1E0434E
:100BB00024BFB3F5001CDCF1FE5C0DD901F0004C44
:100BC0004FEAC0024CEA5070B2F1004F40EB830094
:100BD00008BF20F00100704711F0804F21D113F1C0
:100BE0003872BCBF01F00040704741F480114FEAF9
:100BF0005252C2F11802C2F1200C10FA0CF320FA82
:100C000002F018BF40F001004FEAC1234FEAD3239E
:100C100003FA0CFC40EA0C0023FA02F34FEA430308
:100C2000CCE77FEA625307D150EA01331EBF4FF091
:100C3000FE4040F44000704701F0004040F0FE40AC
:100C400040F40000704700BF53B94AB9002908BFFB
:100C500000281CBF4FF0FF314FF0FF3000F06EB99D
:100C6000ADF1080C6DE904CE00F006F8DDF804E003
:100C7000DDE9022304B070472DE9F047089D0446E2
:100C80008C46002B40F083808A42174647D9B2FA3F
:100C900082F242B1C2F1200024FA00F09140974064
:100CA00040EA010C94404FEA1748230CBCFBF8F6CD
:100CB0001FFA87FE08FB16C143EA014306FB0EF14B
:100CC000994209D9FB1806F1FF3080F01981994249
:100CD00040F21681023E3B445B1AA4B2B3FBF8F02B
:100CE00008FB103344EA034400FB0EFEA64509D975
:100CF0003C1900F1FF3380F00581A64540F20281E6
:100D000002383C4440EA0640A4EB0E0400261DB124
:100D1000D4400023C5E900433146BDE8F08702B95D
:100D2000FFDEB2FA82F2002A50D1CB1B4FEA174EF7
:100D30001FFA87F80126B3FBFEFC210C0EFB1C33C7
:100D400041EA034108FB0CF38B4207D979180CF1F7
:100D5000FF3002D28B4200F2E9808446C91AA3B266
:100D6000B1FBFEF00EFB101143EA014408FB00F852
:100D7000A04507D93C1900F1FF3302D2A04500F28B
:100D8000D9801846A4EB080440EA0C40BFE78B4228
:100D900009D9002D00F0B1800026C5E900013046D8
:100DA0003146BDE8F087B3FA83F6002E4AD18B4274
:100DB00002D3824200F2B880841A61EB0301012061
:100DC0008C46002DA8D0C5E9004CA5E7C2F1200350
:100DD00020FA03F6974001FA02F04FEA174ED94085
:100DE0003043030CB1FBFEF61FFA87F80EFB161119
:100DF00043EA014306FB08F1994204FA02F409D9D7
:100E0000FB1806F1FF3C80F08D80994240F28A8009
:100E1000023E3B445B1A81B2B3FBFEF00EFB103383
:100E200041EA034100FB08F38B4207D9791800F12E
:100E3000FF3C73D28B4271D902383944CB1A40EA55
:100E4000064678E7C6F1200C03FA06F422FA0CF302
:100E50001C4320FA0CF701FA06F34FEA144E21FA6C
:100E60000CF11F433B0CB1FBFEF91FFA84F80EFB9B
:100E7000191143EA014109FB08FA8A4502FA06F210
:100E800000FA06F308D9611809F1FF3048D28A4503
:100E900046D9A9F102092144A1EB0A01BFB2B1FB75
:100EA000FEF00EFB101147EA014700FB08F8B845B9
:100EB00007D9E71900F1FF312ED2B8452CD90238F5
:100EC000274440EA0940A7EB0807A0FB02894F45E9
:100ED000C64649461AD317D05DB1B3EB0E0267EB95
:100EE000010707FA0CFCF2404CEA0202F740C5E9A0
:100EF000002700263146BDE8F0872E4628460BE73E
:100F00000646E9E61846FDE64345E5D2B8EB020E93
:100F100069EB04010138DFE70846D2E760468DE758
:100F20008146B9E7664675E730464AE7ACF1020C00
:100F3000394413E702383C4424E700BF704700BF40
:100F400080B582B000AF786039603A6803490448E0
:100F50001EF064FD00BF0837BD4680BD18190208A9
:100F6000D81B002080B500AF00F006FE00F026F888
:100F700000F0B2F900F088F900F08AF800F0BEF84D
:100F800000F00CF900F056F9084803F019FE1CF0C7
:100F90007FF905F0C9FE064A0021064805F023FF47
:100FA0000346054A136005F0E3FEFEE7241D00201A
:100FB00000590208C1140008D81C002080B594B064
:100FC00000AF07F120033022002118461DF0D6FDA6
:100FD00007F10C0300221A605A609A60DA601A6105
:100FE0000023BB60284B1B6C274A43F080531364DB
:100FF000254B1B6C03F08053BB60BB6800237B60F8
:10100000224B1B68214A43F4804313601F4B1B682B
:1010100003F480437B607B6801233B624FF48033A1
:101020007B620223BB634FF48003FB6304233B64B6
:10103000A8237B640223BB640423FB6407F1200321
:10104000184602F0D1FD0346002B01D000F068FAEB
:101050000F23FB6002233B6100237B614FF4A0530D
:10106000BB614FF48053FB6107F10C030521184667
:1010700003F032F80346002B01D000F051FA00BF14
:101080005037BD4680BD00BF0038024000700040B0
:1010900080B500AF174B184A1A60164B4FF4827296
:1010A0005A60144B00229A60124B0022DA60114BF6
:1010B00000221A610F4B00225A610E4B4FF400724E
:1010C0009A610C4B0022DA610A4B00221A62094B2A
:1010D00000225A62074B00229A62064B0A22DA6209
:1010E000044803F027FA0346002B01D000F018FA59
:1010F00000BF80BD6C1D00200030014080B586B06F
:1011000000AF07F1080300221A605A609A60DA60A3
:101110003B4600221A605A601E4B1F4A1A601D4B44
:10112000A7225A601B4B00229A601A4B4FF6FF729F
:10113000DA60184B00221A61164B00225A61154BD7
:1011400000229A61134803F0EBFC0346002B01D008
:1011500000F0E6F94FF48053BB6007F1080319462D
:101160000C4803F00DFF0346002B01D000F0D8F926
:1011700000233B6000237B603B461946054804F092
:1011800029F90346002B01D000F0CAF900BF183737
:10119000BD4680BD241D00200000014080B586B002
:1011A00000AF07F1080300221A605A609A60DA6003
:1011B0003B4600221A605A601D4B4FF080421A6075
:1011C0001B4BA7225A601A4B00229A60184B4FF013
:1011D000FF32DA60164B00221A61154B00229A6129
:1011E000134803F09DFC0346002B01D000F098F952
:1011F0004FF48053BB6007F1080319460C4803F015
:10120000BFFE0346002B01D000F08AF900233B60AB
:1012100000237B603B461946054804F0DBF8034693
:10122000002B01D000F07CF900BF1837BD4680BD0F
:10123000C41D002080B500AF114B124A1A60104B3C
:101240004FF4E1325A600E4B00229A600C4B0022A0
:10125000DA600B4B00221A61094B0C225A61084BD1
:1012600000229A61064B0022DA61054804F042F937
:101270000346002B01D000F053F900BF80BD00BF32
:10128000E01C00200010014080B582B000AF0023B8
:101290007B60104B1B6B0F4A43F4800313630D4BB1
:1012A0001B6B03F480037B607B68002205213820E0
:1012B00000F080FD382000F099FD002205213B2040
:1012C00000F078FD3B2000F091FD00BF0837BD46DF
:1012D00080BD00BF0038024080B58EB000AF07F17E
:1012E000240300221A605A609A60DA601A610023AF
:1012F0003B626E4B1B6B6D4A43F0100313636B4BE9
:101300001B6B03F010033B623B6A0023FB61674BDE
:101310001B6B664A43F080031363644B1B6B03F043
:101320008003FB61FB690023BB61604B1B6B5F4A61
:1013300043F0040313635D4B1B6B03F00403BB61B9
:10134000BB6900237B61594B1B6B584A43F0010377
:101350001363564B1B6B03F001037B617B69002316
:101360003B61524B1B6B514A43F0200313634F4BBD
:101370001B6B03F020033B613B690023FB604B4B7D
:101380001B6B4A4A43F040031363484B1B6B03F04B
:101390004003FB60FB680023BB60444B1B6B434A6C
:1013A00043F002031363414B1B6B03F00203BB606A
:1013B000BB6800237B603D4B1B6B3C4A43F008033A
:1013C00013633A4B1B6B03F008037B607B680022BE
:1013D0004FF46371364802F0EDFB00224FF4604198
:1013E000344802F0E7FB00223721334802F0E2FBE9
:1013F00000224FF45061314802F0DCFB4FF463737C
:101400007B620123BB620023FB6200233B6307F185
:1014100024031946264802F019FA4FF460437B6210
:101420000123BB620023FB6200233B6307F124031B
:101430001946204802F00AFA37237B620123BB6277
:101440000023FB6200233B6307F1240319461A487B
:1014500002F0FCF94FF450637B620123BB6200236E
:10146000FB6200233B6307F124031946134802F093
:10147000EDF94FF400737B620023BB620023FB6233
:1014800007F1240319460D4802F0E0F908237B62B6
:101490000023BB620023FB6207F1240319460648C0
:1014A00002F0D4F900BF3837BD4680BD0038024095
:1014B000001002400014024000180240000C0240DC
:1014C00080B582B000AF786004F07CFE1BF0E6F9D6
:1014D00002E0C82005F020FD024B1B68002BF8D06D
:1014E00005F014FD4C1F002080B582B000AF78607D
:1014F0007B681B68084A934201D100F05FFB7B6860
:101500001A68064B1B689A4202D178681BF019FCD6
:1015100000BF0837BD4680BD00100040C41D00203C
:1015200080B400AF72B600BFFEE7000080B582B0A5
:1015300000AF00237B60124B5B6C114A43F4804385
:1015400053640F4B5B6C03F480437B607B68002328
:101550003B600B4B1B6C0A4A43F080531364084BEF
:101560001B6C03F080533B603B6800220F216FF03F
:10157000010000F01FFC00BF0837BD4680BD00BF62
:101580000038024080B58AB000AF786007F11403DC
:1015900000221A605A609A60DA601A617B681B68E0
:1015A000484A934240F08A8000233B61464B5B6C83
:1015B000454A43F480535364434B5B6C03F48053BC
:1015C0003B613B690023FB603F4B1B6B3E4A43F092
:1015D000020313633C4B1B6B03F00203FB60FB68CD
:1015E00038237B610223BB610023FB6103233B6241
:1015F00005237B6207F114031946344802F026F9EB
:10160000334B344A1A60324B4FF0C0625A60304B51
:1016100000229A602E4B0022DA602D4B4FF480623C
:101620001A612B4B00225A61294B00229A61284BE8
:101630000022DA61264B4FF400321A62244B00225A
:101640005A62234800F0E0FB0346002B01D0FFF76D
:1016500067FF7B681E4ADA641D4A7B6893631E4BF2
:101660001E4A1A601C4B4FF0C0625A601A4B40224F
:101670009A60194B0022DA60174B4FF480621A61AE
:10168000154B00225A61144B00229A61124B002222
:10169000DA61114B4FF400321A620F4B00225A628A
:1016A0000D4800F0B1FB0346002B01D0FFF738FFD7
:1016B0007B68094A9A64084A7B68936300BF2837AD
:1016C000BD4680BD003001400038024000040240A9
:1016D0000C1E0020106402406C1E00205864024062
:1016E00080B584B000AF78607B681B68284A93425D
:1016F0002ED10023FB60274B5B6C264A43F001038D
:101700005364244B5B6C03F00103FB60FB68002215
:101710000521182000F04EFB182000F067FB002286
:101720000521192000F046FB192000F05FFB002284
:1017300005211A2000F03EFB1A2000F057FB002282
:1017400005211B2000F036FB1B2000F04FFB1AE0A8
:101750007B681B68B3F1804F15D10023BB600D4B34
:101760001B6C0C4A43F0010313640A4B1B6C03F01F
:101770000103BB60BB68002205211C2000F01AFB9E
:101780001C2000F033FB00BF1037BD4680BD00BFFA
:10179000000001400038024080B58AB000AF786098
:1017A00007F1140300221A605A609A60DA601A6125
:1017B0007B681B681D4A934234D100233B611C4B5C
:1017C0005B6C1B4A43F010035364194B5B6C03F0D2
:1017D00010033B613B690023FB60154B1B6B144AF4
:1017E00043F001031363124B1B6B03F00103FB6017
:1017F000FB684FF4C0637B610223BB610023FB6184
:1018000003233B6207237B6207F11403194609484F
:1018100002F01CF800220521252000F0CBFA25203B
:1018200000F0E4FA00BF2837BD4680BD001001403B
:10183000003802400000024080B58CB000AF7860F4
:101840000023FB620023BB6200227968362000F08F
:10185000B1FA362000F0CAFA0023FB601F4B1B6C64
:101860001E4A43F0100313641C4B1B6C03F010035F
:10187000FB60FB6807F1100207F1140311461846DC
:1018800002F026FE02F0FCFD03465B00FB62FB6AF1
:10189000134AA2FB03239B0C013BBB62114B124A70
:1018A0001A60104B40F2E732DA600E4ABB6A5360AE
:1018B0000C4B00221A610B4B00229A60094803F07E
:1018C0002FF90346002B04D1064803F0E1F9034643
:1018D00000E0012318463037BD4680BD0038024085
:1018E00083DE1B43CC1E00200010004080B400AFFC
:1018F000FEE780B400AFFEE780B400AFFEE780B43F
:1019000000AFFEE780B400AFFEE780B400AF00BFD9
:10191000BD465DF8047B704780B500AF024803F018
:1019200027FA00BF80BD00BF241D002080B500AF96
:10193000024803F01DFA00BF80BD00BF241D002037
:1019400080B500AF024803F013FA00BF80BD00BFAE
:10195000241D002080B500AF024803F009FA00BF43
:1019600080BD00BF241D002080B500AF024803F0F9
:10197000FFF900BF80BD00BFC41D002080B500AFCF
:10198000024803F005FE00BF80BD00BFE01C002040
:1019900080B500AF024803F0EBF900BF80BD00BF87
:1019A000CC1E002080B500AF024800F06DFB00BFE8
:1019B00080BD00BF0C1E002080B500AF024800F0C3
:1019C00063FB00BF80BD00BF6C1E002080B500AF70
:1019D000024801F079F900BF80BD00BF64380020E3
:1019E00080B400AF01231846BD465DF8047B704704
:1019F00080B483B000AF78603960054B16221A605E
:101A00004FF0FF3318460C37BD465DF8047B704736
:101A10008C89002080B582B000AF78604FF0FF3134
:101A20007868FFF7E5FFFEE780B483B000AF786029
:101A30004FF0FF3318460C37BD465DF8047B704706
:101A400080B483B000AF786039603B684FF40052D7
:101A50005A60002318460C37BD465DF8047B70477A
:101A600080B483B000AF7860012318460C37BD46C0
:101A70005DF8047B704780B485B000AFF860B96052
:101A80007A60002318461437BD465DF8047B704722
:101A900080B487B000AF7860144A154BD31A7B61CD
:101AA0007B693B61134B1B68002B02D1114B124A1F
:101AB0001A60104B1A687B6813443A699A4205D23F
:101AC0000E4B0C221A604FF0FF3309E0094B1B68E4
:101AD000FB60084B1A687B681344064A1360FB6876
:101AE00018461C37BD465DF8047B70470000022095
:101AF000000400001C00002010C400208C8900207D
:101B000080B400AF064BD3F88830054A43F4700325
:101B1000C2F8883000BFBD465DF8047B704700BF47
:101B200000ED00E0DFF834D00D480E490E4A0023E6
:101B300002E0D458C4500433C4188C42F9D30B4A81
:101B40000B4C002301E013600432A242FBD3FFF7E9
:101B5000D7FF1CF0A5FFFFF705FA70470000022031
:101B600000000010080300105C5F02080000002065
:101B700010C40020FEE7000080B500AF0E4B1B68CC
:101B80000D4A43F4007313600B4B1B680A4A43F47D
:101B900080631360084B1B68074A43F4807313602B
:101BA000032000F0FCF80020FFF746FEFFF7BEFC24
:101BB0000023184680BD00BF003C024080B400AF47
:101BC000064B1B781A46064B1B681344044A1360E5
:101BD00000BFBD465DF8047B704700BF08000010E1
:101BE000141F002080B400AF034B1B681846BD468D
:101BF0005DF8047B704700BF141F002080B584B0DF
:101C000000AF7860FFF7EEFFB8607B68FB60FB68B1
:101C1000B3F1FF3F05D00A4B1B781A46FB6813440B
:101C2000FB6000BFFFF7DEFF0246BB68D31AFA680D
:101C30009A42F7D800BF00BF1037BD4680BD00BF35
:101C40000800001080B485B000AF78607B6803F0B6
:101C50000703FB600C4BDB68BB60BA684FF6FF0301
:101C60001340BB60FB681A02BB68134343F0BF63B9
:101C700043F40033BB60044ABB68D36000BF143731
:101C8000BD465DF8047B704700ED00E080B400AF16
:101C9000044BDB681B0A03F007031846BD465DF8DA
:101CA000047B704700ED00E080B483B000AF0346D2
:101CB000FB7197F90730002B0BDBFB7903F01F0258
:101CC000074997F907305B09012000FA02F241F851
:101CD000232000BF0C37BD465DF8047B704700BF72
:101CE00000E100E080B483B000AF03463960FB71CF
:101CF00097F90730002B0ADB3B68DAB20C4997F9F9
:101D000007301201D2B20B4483F800230AE03B688B
:101D1000DAB20849FB7903F00F03043B1201D2B297
:101D20000B441A7600BF0C37BD465DF8047B704744
:101D300000E100E000ED00E080B489B000AFF860A1
:101D4000B9607A60FB6803F00703FB61FB69C3F1CC
:101D50000703042B28BF0423BB61FB690433062B54
:101D600002D9FB69033B00E000237B614FF0FF32A7
:101D7000BB6902FA03F3DA43BB681A407B699A40F5
:101D80004FF0FF317B6901FA03F3D9437B680B40C5
:101D9000134318462437BD465DF8047B704780B571
:101DA00082B000AF78607868FFF74CFF00BF08375B
:101DB000BD4680BD80B586B000AF0346B9607A608D
:101DC000FB7300237B61FFF761FF78617A68B96874
:101DD0007869FFF7B1FF024697F90F3011461846B0
:101DE000FFF780FF00BF1837BD4680BD80B582B0C9
:101DF00000AF0346FB7197F907301846FFF754FF11
:101E000000BF0837BD4680BD80B586B000AF7860A2
:101E100000237B61FFF7E6FE38617B68002B01D170
:101E2000012399E07B68022283F835207B68002239
:101E300083F834207B681B681A687B681B6822F073
:101E400001021A600FE0FFF7CDFE02463B69D31A8C
:101E5000052B08D97B6820225A657B68032283F80A
:101E60003520032378E07B681B681B6803F00103BF
:101E7000002BE8D17B681B681B687B617A69384B53
:101E800013407B617B685A687B689B681A437B6858
:101E9000DB681A437B681B691A437B685B691A43DA
:101EA0007B689B691A437B68DB691A437B681B6A02
:101EB00013437A6913437B617B685B6A042B07D108
:101EC0007B68DA6A7B681B6B13437A6913437B6117
:101ED0007B681B687A691A607B681B685B697B6139
:101EE0007B6923F007037B617B685B6A7A69134334
:101EF0007B617B685B6A042B17D17B689B6A7A697C
:101F000013437B617B68DB6A002B0ED0786800F09E
:101F10007BFA0346002B08D07B6840225A657B6819
:101F2000012283F83520012316E07B681B687A695B
:101F30005A61786800F032FA0346FB607B68DB6D1B
:101F40003F229A40FB689A607B6800225A657B6852
:101F5000012283F83520002318461837BD4680BD7E
:101F60003F8010F080B584B000AF78607B689B6DD7
:101F7000FB60FFF737FEB8607B6893F83530DBB263
:101F8000022B08D07B6880225A657B68002283F888
:101F90003420012352E07B681B681A687B681B6849
:101FA00022F016021A607B681B685A697B681B68FE
:101FB00022F080025A617B681B6C002B03D17B6886
:101FC0009B6C002B07D07B681B681A687B681B68BA
:101FD00022F008021A607B681B681A687B681B681D
:101FE00022F001021A6013E0FFF7FCFD0246BB6815
:101FF000D31A052B0CD97B6820225A657B680322F3
:1020000083F835207B68002283F83420032315E011
:102010007B681B681B6803F00103002BE4D17B681D
:10202000DB6D3F229A40FB689A607B68012283F84F
:1020300035207B68002283F83420002318461037AF
:10204000BD4680BD80B483B000AF78607B6893F8F4
:102050003530DBB2022B04D07B6880225A65012325
:102060000CE07B68052283F835207B681B681A68C2
:102070007B681B6822F001021A60002318460C37A7
:10208000BD465DF8047B704780B586B000AF7860D0
:102090000023BB60924B1B68924AA2FB03239B0A5E
:1020A0007B617B689B6D3B613B691B68FB607B6868
:1020B000DB6D08229A40FB681340002B1AD07B6826
:1020C0001B681B6803F00403002B13D07B681B689C
:1020D0001A687B681B6822F004021A607B68DB6D5B
:1020E00008229A403B699A607B685B6D43F001026D
:1020F0007B685A657B68DB6D01229A40FB68134060
:10210000002B12D07B681B685B6903F08003002BF7
:102110000BD07B68DB6D01229A403B699A607B683B
:102120005B6D43F002027B685A657B68DB6D0422BD
:102130009A40FB681340002B12D07B681B681B6819
:1021400003F00203002B0BD07B68DB6D04229A4066
:102150003B699A607B685B6D43F004027B685A655B
:102160007B68DB6D10229A40FB681340002B43D044
:102170007B681B681B6803F00803002B3CD07B685E
:10218000DB6D10229A403B699A607B681B681B6874
:1021900003F48023002B18D07B681B681B6803F4B2
:1021A0000023002B08D17B681B6C002B24D07B689C
:1021B0001B6C786898471FE07B689B6C002B1BD0DA
:1021C0007B689B6C7868984716E07B681B681B6887
:1021D00003F48073002B07D17B681B681A687B6847
:1021E0001B6822F008021A607B681B6C002B03D06E
:1021F0007B681B6C786898477B68DB6D20229A406F
:10220000FB681340002B00F08E807B681B681B6806
:1022100003F01003002B00F086807B68DB6D20222A
:102220009A403B699A607B6893F83530DBB2052BA6
:1022300036D17B681B681A687B681B6822F016021F
:102240001A607B681B685A697B681B6822F08002F1
:102250005A617B681B6C002B03D17B689B6C002B45
:1022600007D07B681B681A687B681B6822F008022D
:102270001A607B68DB6D3F229A403B699A607B68FD
:10228000012283F835207B68002283F834207B68A4
:102290001B6D002B7DD07B681B6D7868984778E0BC
:1022A0007B681B681B6803F48023002B1CD07B68B1
:1022B0001B681B6803F40023002B08D17B685B6C50
:1022C000002B30D07B685B6C786898472BE07B688C
:1022D000DB6B002B27D07B68DB6B7868984722E0AC
:1022E00000000010B5814E1B7B681B681B6803F45F
:1022F0008073002B0FD17B681B681A687B681B6892
:1023000022F010021A607B68012283F835207B6876
:10231000002283F834207B68DB6B002B03D07B68C2
:10232000DB6B786898477B685B6D002B32D07B68ED
:102330005B6D03F00103002B22D07B68052283F83C
:1023400035207B681B681A687B681B6822F00102D5
:102350001A60BB680133BB607A699A4207D37B6815
:102360001B681B6803F00103002BF2D100E000BFE3
:102370007B68012283F835207B68002283F83420B3
:102380007B68DB6C002B05D07B68DB6C786898473A
:1023900000E000BF1837BD4680BD00BF80B485B0E7
:1023A00000AF78607B681B68DBB2103B144AA2FB6D
:1023B00003231B09FB60134AFB6813441B781A466E
:1023C0007B68DA65FB68032B09D97B681B6823F4FB
:1023D0007F7323F003031A1D7B689A6507E07B680F
:1023E0001B6823F47F7323F003037A6893657B688B
:1023F0009B6D18461437BD465DF8047B704700BFDF
:10240000ABAAAAAA3C59020880B485B000AF786094
:102410000023FB737B689B6ABB607B689B69002B16
:102420001FD1BB68032B56D801A252F823F000BF7E
:10243000412400085324000841240008D724000840
:102440007B68DB6A03F08073002B46D00123FB73AB
:1024500043E07B68DB6AB3F1C07F40D10123FB73AB
:102460003DE07B689B69B3F5005F21D1BB68032B1E
:1024700037D801A252F823F0892400088F240008DD
:1024800089240008A12400080123FB7330E07B6845
:10249000DB6A03F08073002B25D00123FB7322E05D
:1024A0007B68DB6AB3F1C07F1FD10123FB731CE0A3
:1024B000BB68022B03D9BB68032B03D018E00123B0
:1024C000FB7315E07B68DB6A03F08073002B0ED092
:1024D0000123FB730BE000BF0AE000BF08E000BF70
:1024E00006E000BF04E000BF02E000BF00E000BF64
:1024F000FB7B18461437BD465DF8047B704700BF70
:1025000080B588B000AF78600023FB610023FB60DA
:10251000AA4BBB6100237B6100233B617B68002BDE
:1025200001D1012383E17B6893F84430DBB2002BB7
:1025300006D17B68002283F84520786803F0A4FF69
:102540000023BB609E4B5B6C9D4A43F48043536405
:102550009B4B5B6C03F48043BB60BB68994B5B682F
:10256000984A23F400035360964B5A687B681B6AB1
:10257000944913434B607B681B6803F580531A68CA
:102580007B681B6842F0010203F580531A60FFF775
:1025900029FB786111E0FFF725FB02467B69D31A1E
:1025A000B3F5FA7F09D97B68032283F844207B685E
:1025B000002283F84520032339E17B681B6803F57B
:1025C00080531B6803F00103002BE4D17B681B6878
:1025D0001B69FB61FB6923F01C03FB6101F044FFF5
:1025E000B861BB69784A934208D9BB69774A93427C
:1025F00004D8FB6943F00803FB6127E0BB69734A19
:10260000934208D9BB696D4A934204D2FB6943F0F7
:102610000C03FB611AE0BB69684A934203D3BB69B0
:102620006B4A934211D9BB69694A934208D9BB6985
:10263000684A934204D8FB6943F00403FB6105E058
:10264000FB6943F01003FB6100E000BF7B681B687F
:10265000FA691A614FF400420021786800F017FC13
:102660000346002B0BD001233B613969786800F0E9
:10267000CDFD7B68012283F844200123D7E0FF20B1
:10268000FFF7BCFA7B685B68002B00F0A580FFF7C2
:10269000A9FA786107F10C031A460121786800F065
:1026A0008EFBFFF79FFA02467B69D31A41F288320C
:1026B00093420FD901233B613969786800F0A6FD88
:1026C0007B68012283F844207B68002283F8452040
:1026D0000323ACE0FB6803F00403002BDAD04FF4D3
:1026E00080520021786800F0D2FB0346002B0BD00B
:1026F00001233B613969786800F088FD7B6801221D
:1027000083F84420012392E0FFF76CFA786107F127
:102710000C031A460121786800F051FBFFF762FABA
:1027200002467B69D31A41F2883293420FD90123C2
:102730003B613969786800F069FD7B68012283F8A4
:1027400044207B68002283F8452003236FE0FB6868
:1027500003F02003002BDAD007F10C031A461021F6
:10276000786800F02CFB0346002B0BD001233B6163
:102770003969786800F04AFD7B68012283F84420BB
:10278000012354E0FB6803F00403002B04D07B68B2
:102790004FF40062DA6002E07B680022DA60FB68D6
:1027A00003F00203002B03D07B6800229A6035E01F
:1027B0007B684FF480429A6030E000BF008793034B
:1027C0000038024000380140FF2C3101BF0E1602D4
:1027D000FFE0F5057FD1F0087B68DB68DB089AB283
:1027E0007B689B685B089BB213439BB21A4600212F
:1027F000786800F04CFB0346002B0BD001233B61B3
:102800003969786800F002FD7B68012283F8442072
:1028100001230CE040F6FF70FFF7F0F939697868A2
:1028200000F0F4FC7B68012283F844200023184662
:102830002037BD4680BD00BF80B487B000AFF860D0
:10284000B9607A603B6000237B61FB6893F8453098
:10285000012B01D1022352E0FB68012283F84520BD
:10286000FB68022283F84420FB68BA68DA6200231E
:102870007B6130E07B695B01BA6813443B613B6973
:102880004FF480121A607B6940F2F45202FB03F3AA
:102890007A6813441A463B699A60FB68DB69002B2F
:1028A00005D13B691B6843F440023B691A603B68F1
:1028B000013B7A699A4208D27B6901335B01BA68AD
:1028C00013441A463B69DA6002E0BA683B69DA6091
:1028D0007B6901337B617A693B689A42CAD3FB68A2
:1028E0001B68BA6803F5805310331A60FB68012235
:1028F00083F84420FB68002283F845200023184613
:102900001C37BD465DF8047B704780B487B000AFCC
:10291000F860B9607A603B6000237B61FB6893F8E4
:102920004530012B01D1022356E0FB68012283F8D8
:102930004520FB68022283F84420FB68BA689A624B
:1029400000237B6134E07B695B01BA6813443B611F
:102950003B694FF000421A603B6944F2F4525A60FE
:102960007B6940F2F45202FB03F37A6813441A467F
:102970003B699A60FB689B69012B05D13B695B68E9
:1029800023F000423B695A603B68013B7A699A42F6
:1029900008D27B6901335B01BA6813441A463B696C
:1029A000DA6002E0BA683B69DA607B6901337B6117
:1029B0007A693B689A42C6D3FB681B68BA6803F51C
:1029C00080530C331A60FB68012283F84420FB68B3
:1029D000002283F84520002318461C37BD465DF8C9
:1029E000047B704780B487B000AF78603960002303
:1029F0007B610023FB6000233B617B6893F84530DB
:102A0000012B01D10223CDE07B68012283F8452010
:102A10007B68022283F844203B68002B09D17B6845
:102A2000012283F844207B68002283F8452001239B
:102A3000B8E07B68DB6A1B68002B09DA7B6812222E
:102A400083F844207B68002283F845200123A9E015
:102A50003B6840F2F452934215D93B68544AA2FBBA
:102A600003239B0A7B613A68514BA3FB02139B0A29
:102A700040F2F45101FB03F3D31A002B05D07B691C
:102A800001337B6101E001237B617B69012B1CD158
:102A90007B68DB6A1A687B68DB6A42F040521A6026
:102AA0007B68DB6A3A68C2F30C025A607B68DB6AB7
:102AB0001A687B68DB6A42F000421A607B68DB6A56
:102AC000DB681A467B68DA624BE000233B6144E036
:102AD0007B68DB6A1A687B68DB6A22F040521A6006
:102AE0003B69002B07D17B68DB6A1A687B68DB6A6D
:102AF00042F080521A607B68DB6A40F2F4525A60FE
:102B00007B69013B3A699A4216D17B68DB6A1A6895
:102B10007B68DB6A42F000521A607B69254A02FB3F
:102B200003F23B68134403F2F453FB607B68DB6AF7
:102B3000FA68C2F30C025A607B68DB6A1A687B6829
:102B4000DB6A42F000421A607B68DB6ADB681A4687
:102B50007B68DA623B6901333B613A697B699A427F
:102B6000B6D37B681B6803F5805314331B6803F0EE
:102B70000403002B0DD07B681B6803F580531433CE
:102B800004221A607B681B6803F58053043300221B
:102B90001A607B68012283F844207B68002283F856
:102BA0004520002318461C37BD465DF8047B70475E
:102BB0000BB002AC0CFAFFFF80B485B000AF7860B8
:102BC0000023FB607B6893F84530012B01D1022381
:102BD00074E07B68012283F845207B68022283F839
:102BE00044205AE0FB680133FB607B689B6A1B68EA
:102BF00003F44073B3F5007F0DD17B689A6A7B685C
:102C00001A637B6801229A637B689B6ADB681A46B9
:102C10007B689A6241E07B689B6A1B6803F440739F
:102C2000002B0BD17B689B6B5A1C7B689A637B687B
:102C30009B6ADB681A467B689A622EE07B689A6A18
:102C40007B685A637B689B6B5A1C7B689A637B68C2
:102C50009B6B012B03D17B689A6A7B681A637B6844
:102C60009B6A1B681B0CC3F30D031A1F7B68DA6396
:102C70007B681B6B9A687B681A647B689B6ADB685D
:102C80001A467B689A627B68012283F844207B683D
:102C9000002283F84520002310E07B689B6A1B68B4
:102CA000002B02DBFB68032B9CD97B68012283F895
:102CB00044207B68002283F84520012318461437FE
:102CC000BD465DF8047B704780B582B000AF786088
:102CD0007B681B6803F5805314331B6803F04003C3
:102CE000402B12D1786803F07DFC7B681B6803F5EC
:102CF0008053143340221A607B68012283F84420F9
:102D00007B68002283F845201BE07B681B6803F585
:102D1000805314331B6803F00103012B11D1786831
:102D200000F039F87B681B6803F5805314330122E7
:102D30001A607B68012283F844207B68002283F8B4
:102D400045207B681B6803F5805314334FF48032B1
:102D50001A607B681B6803F5805314331B6803F407
:102D60000043B3F5004F12D1786800F01EF87B687D
:102D70001B6803F5805314334FF400421A607B68DC
:102D8000012283F844207B68002283F8452000BF9D
:102D90000837BD4680BD80B483B000AF786000BF07
:102DA0000C37BD465DF8047B704780B483B000AF3C
:102DB000786000BF0C37BD465DF8047B704780B576
:102DC00086B000AFF8600B467A607B8100237B61A0
:102DD00000233B61FB6893F84430DBB2822B01D1C6
:102DE000022350E0FB68822283F84420FB681B68C2
:102DF0001B697B617B6903F01C037B61FB681B8A99
:102E0000DB029BB27A6913437B617B899B0103F4EC
:102E1000F8637A6913437B617B6923F002037B616A
:102E20007B6943F001037B61FB681B687A691A6167
:102E3000FEF7D8FE386115E0FEF7D4FE02463B6986
:102E4000D31AB3F5803F09D3FB68012283F84420ED
:102E5000FB68002283F84520032314E0FB681B680D
:102E60001B697B617B6903F00103002BE4D1FB68E4
:102E70001B685B699BB21A467B681A60FB6801227B
:102E800083F84420002318461837BD4680BD80B51E
:102E900086B000AFF8600B467A607B8100237B61CF
:102EA00000233B61FB6893F84430DBB2422B01D135
:102EB00002234EE0FB68422283F84420FB681B6833
:102EC0001B697B617B6903F01C037B61FB681B8AC8
:102ED000DB029BB27A6913437B617B899B0103F41C
:102EE000F8637A6913437B617B6943F002037B617A
:102EF0007B6943F001037B617B689AB2FB681B68C6
:102F00005A61FB681B687A691A61FEF76BFE3861CB
:102F100015E0FEF767FE02463B69D31AB3F5803F22
:102F200009D3FB68012283F84420FB68002283F860
:102F3000452003230DE0FB681B681B697B617B69EF
:102F400003F00103002BE4D1FB68012283F8442045
:102F5000002318461837BD4680BD80B582B000AF4B
:102F600078607B6893F84530012B01D102231FE084
:102F70007B68012283F845207B68022283F8442085
:102F8000786800F045FB786800F07CFB786800F01A
:102F900013FC786800F0B0FB786800F0DDFB7B681C
:102FA000012283F844207B68002283F84520002317
:102FB00018460837BD4680BD80B582B000AF786046
:102FC0007B6893F84530012B01D102231FE07B6819
:102FD000012283F845207B68022283F84420786828
:102FE00000F0A2FB786800F0CFFB786800F067FB88
:102FF000786800F0E1FB786800F027FB7B6801222D
:1030000083F844207B68002283F84520002318467B
:103010000837BD4680BD000080B584B000AF786041
:1030200039600023FB607B6893F84530012B01D1A8
:103030000223E4E07B68012283F845207B680222BA
:1030400083F844203B68002B00F0B1807B681B684C
:103050001B68FB60FA686C4B1340FB603B681A68A6
:103060003B685B681A433B689B681A433B68DB68B4
:103070001A437B689B681A433B681B691A433B6889
:103080005B691A437B68DB681A433B689B691A4398
:103090003B68DB691A433B681B6A1A433B685B6AFF
:1030A0001A433B689B6A1343FA681343FB607B68CF
:1030B0001B68FA681A607B681B681B68FB6001204C
:1030C000FEF79CFD7B681B68FA681A603B68DA6A49
:1030D0003B681B6B1A433B685B6B1A433B689B6BFB
:1030E0001A433B68DB6B1A433B681B6C1A433B6813
:1030F0005B6C42EA03013B689A6C7B681B680A437D
:103100005A607B681B685B68FB600120FEF776FDF8
:103110007B681B68FA685A607B681B683A68D26CE7
:103120009A607B681B683A68126DDA607B681B687E
:103130009B69FB60FA684FF641731340FB603B6884
:103140005B6D1A043B689B6D1A433B68DB6D1A4349
:103150003B681B6E1A433B685B6E1A433B689B6E71
:103160001343FA681343FB607B681B68FA689A6133
:103170007B681B689B69FB600120FEF73FFD7B6855
:103180001B68FA689A613B68D96E3B681A6F7B6866
:103190001B680A43DA617B681B68DB69FB600120FE
:1031A000FEF72CFD7B681B68FA68DA611EE07B681D
:1031B0001B681B68FB60FB6823F49043FB607B6823
:1031C0009A687B68DB681343FA681343FB607B688B
:1031D0001B68FA681A607B681B681B68FB6001202B
:1031E000FEF70CFD7B681B68FA681A607B68012299
:1031F00083F844207B68002283F84520002318468A
:103200001037BD4680BD00BF0F8120FF80B5B0B034
:1032100000AF786039600023C7F8BC303B68002BF2
:1032200007D07B684FF40062DA607B684FF480421D
:103230009A600023BB640023FB6400233B650023EA
:103240007B650023BB650023FB657B68DB69002B86
:1032500003D14FF480633B6601E000233B664FF4EB
:1032600000737B660023BB660023FB6600233B677D
:1032700000237B670023BB674023FB670023C7F85D
:1032800080300023C7F884300023C7F8883000233B
:10329000C7F88C300023C7F890300023C7F894306B
:1032A0000023C7F898300023C7F89C308023C7F864
:1032B000A0300023C7F8A4300023C7F8A8300023AB
:1032C000C7F8AC300023C7F8B0300023C7F8B430DB
:1032D0000023C7F8B8307B681B681B68C7F8BC3090
:1032E000D7F8BC20AC4B1340C7F8BC30BA6CFB6CB1
:1032F0001A433B6D1A437B6D1A437B689B681A43E4
:10330000BB6D1A43FB6D1A437B68DB681A433B6E47
:103310001A437B6E1A43BB6E1A43FB6E1A433B6F14
:103320001343D7F8BC201343C7F8BC307B681B6835
:10333000D7F8BC201A607B681B681B68C7F8BC30D4
:103340000120FEF75BFC7B681B68D7F8BC201A6085
:103350007A6FBB6F1A43FB6F1A43D7F880301A435A
:10336000D7F884301A43D7F888301A43D7F88C300E
:1033700042EA0301D7F890207B681B680A435A6031
:103380007B681B685B68C7F8BC300120FEF736FC21
:103390007B681B68D7F8BC205A607B681B68D7F82D
:1033A00094209A607B681B68D7F89820DA607B6865
:1033B0001B689B69C7F8BC30D7F8BC204FF6417337
:1033C0001340C7F8BC30D7F89C301A04D7F8A030A7
:1033D0001A43D7F8A4301A43D7F8A8301A43D7F8BD
:1033E000AC301A43D7F8B0301343D7F8BC2013439E
:1033F000C7F8BC307B681B68D7F8BC209A617B6833
:103400001B689B69C7F8BC300120FEF7F7FB7B689F
:103410001B68D7F8BC209A61D7F8B410D7F8B82049
:103420007B681B680A43DA617B681B68DB69C7F845
:10343000BC300120FEF7E2FB7B681B68D7F8BC209C
:10344000DA610023BB604FF00073FB6000233B6137
:103450004FF400137B610023BB610023FB61002359
:103460003B6200237B620423BB624FF00073FB626C
:103470004FF480333B634FF480037B634FF400537E
:10348000BB638023FB6300233B6400237B647B6876
:103490001B6803F5805318331B68C7F8BC30D7F896
:1034A000BC203E4B1340C7F8BC30BA68FB681A43D7
:1034B0003B691A437B691A43BB691A43FB691A4388
:1034C0003B6A1A437B6A1A43BB6A1343D7F8BC2092
:1034D0001343C7F8BC307B681B6803F5805318336F
:1034E000D7F8BC201A607B681B6803F5805318333B
:1034F0001B68C7F8BC300120FEF780FB7B681B68A7
:1035000003F580531833D7F8BC201A60FA6A3B6B76
:103510001A437B6B1A43BB6B1A43FB6B1A433B6C1E
:103520009B001A437B6C1A437B681B6842F40002C1
:1035300003F580531A607B681B6803F580531B6892
:10354000C7F8BC300120FEF759FB7B681B6803F508
:103550008053D7F8BC201A607B689B69012B0FD180
:103560007B681B6803F580531C331A687B681B68F3
:1035700042F4803242F0400203F580531C331A605B
:103580007B685B691A460021786800F009F800BF83
:10359000C037BD4680BD00BF0F8120FF233FDEF84E
:1035A00080B487B000AFF860B9607A607B6805339B
:1035B0001B781B027A680432127813437B61BA6865
:1035C000114B13441A467B6913607B6803331B78E5
:1035D0001A067B6802331B781B041A437B6801338D
:1035E0001B781B0213437A68127813437B61BA6815
:1035F000064B13441A467B69136000BF1C37BD4657
:103600005DF8047B704700BF408002404480024068
:1036100080B584B000AF78600023FB607B681B68D6
:103620001A687B681B6842F008021A607B681B6896
:103630001B68FB60012000F0E9F87B681B68FA68F2
:103640001A6000BF1037BD4680BD80B584B000AFA2
:1036500078600023FB607B681B681A687B681B68C6
:1036600022F008021A607B681B681B68FB6001205F
:1036700000F0CCF87B681B68FA681A6000BF10374E
:10368000BD4680BD80B584B000AF78600023FB608C
:103690007B681B681A687B681B6842F004021A602A
:1036A0007B681B681B68FB60012000F0AFF87B683B
:1036B0001B68FA681A6000BF1037BD4680BD80B530
:1036C00084B000AF78600023FB607B681B681A68D9
:1036D0007B681B6822F004021A607B681B681B6809
:1036E000FB60012000F092F87B681B68FA681A60A2
:1036F00000BF1037BD4680BD80B483B000AF786096
:103700007B681B6803F5805318331A687B681B6855
:1037100042F4005203F5805318331A6000BF0C378F
:10372000BD465DF8047B704780B483B000AF78601D
:103730007B681B6803F5805318331A687B681B6825
:1037400022F4005203F5805318331A6000BF0C377F
:10375000BD465DF8047B704780B483B000AF7860ED
:103760007B681B6803F5805318331A687B681B68F5
:1037700042F0020203F5805318331A6000BF0C3781
:10378000BD465DF8047B704780B483B000AF7860BD
:103790007B681B6803F5805318331A687B681B68C5
:1037A00022F0020203F5805318331A6000BF0C3771
:1037B000BD465DF8047B704780B584B000AF78608B
:1037C0000023FB607B681B6803F5805318331A687D
:1037D0007B681B6842F4801203F5805318331A602B
:1037E0007B681B6803F5805318331B68FB6001205E
:1037F00000F00CF87B681B68FA6803F580531833F7
:103800001A6000BF1037BD4680BD000080B485B08F
:1038100000AF78600B4B1B680B4AA2FB03235B0ACB
:103820007A6802FB03F3FB6000BFFB685A1EFA6074
:10383000002BF9D100BF00BF1437BD465DF8047BF3
:10384000704700BF00000010D34D621080B489B0F3
:1038500000AF7860396000237B6100233B61002367
:10386000BB610023FB616BE10122FB6902FA03F3F8
:103870007B613B681B687A6913403B613A697B69ED
:103880009A4240F05A813B685B6803F00303012BC6
:1038900005D03B685B6803F00303022B30D17B68E3
:1038A0009B68BB61FB695B00032202FA03F3DB4305
:1038B000BA691340BB613B68DA68FB695B0002FAD6
:1038C00003F3BA691343BB617B68BA699A607B688A
:1038D0005B68BB610122FB6902FA03F3DB43BA694F
:1038E0001340BB613B685B681B0903F00102FB6985
:1038F00002FA03F3BA691343BB617B68BA695A6081
:103900003B685B6803F00303032B17D07B68DB681D
:10391000BB61FB695B00032202FA03F3DB43BA6974
:103920001340BB613B689A68FB695B0002FA03F3D2
:10393000BA691343BB617B68BA69DA603B685B684C
:1039400003F00303022B23D1FB69DA087B680832FA
:1039500053F82230BB61FB6903F007039B000F2281
:1039600002FA03F3DB43BA691340BB613B681A698F
:10397000FB6903F007039B0002FA03F3BA691343E0
:10398000BB61FB69DA087B680832B96943F8221029
:103990007B681B68BB61FB695B00032202FA03F3CF
:1039A000DB43BA691340BB613B685B6803F0030209
:1039B000FB695B0002FA03F3BA691343BB617B68DE
:1039C000BA691A603B685B6803F44033002B00F06F
:1039D000B4800023FB60604B5B6C5F4A43F4804320
:1039E00053645D4B5B6C03F48043FB60FB685B4A94
:1039F000FB699B08023352F82330BB61FB6903F07B
:103A000003039B000F2202FA03F3DB43BA6913405E
:103A1000BB617B68524A93422BD07B68514A9342E8
:103A200025D07B68504A93421FD07B684F4A93420F
:103A300019D07B684E4A934213D07B684D4A93421B
:103A40000DD07B684C4A934207D07B684B4A934227
:103A500001D107230EE008230CE006230AE005232A
:103A600008E0042306E0032304E0022302E001232C
:103A700000E00023FA6902F0030292009340BA6961
:103A80001343BB613549FB699B080233BA6941F8AE
:103A900023203B4B1B68BB613B69DB43BA69134086
:103AA000BB613B685B6803F48033002B03D0BA69C9
:103AB0003B691343BB61324ABB691360304B5B689F
:103AC000BB613B69DB43BA691340BB613B685B6820
:103AD00003F40033002B03D0BA693B691343BB6185
:103AE000274ABB695360264B9B68BB613B69DB433C
:103AF000BA691340BB613B685B6803F48013002B19
:103B000003D0BA693B691343BB611D4ABB6993602B
:103B10001B4BDB68BB613B69DB43BA691340BB618C
:103B20003B685B6803F40013002B03D0BA693B6960
:103B30001343BB61124ABB69D360FB690133FB616C
:103B4000FB690F2B7FF690AE00BF00BF2437BD4648
:103B50005DF8047B704700BF003802400038014028
:103B6000000002400004024000080240000C024035
:103B7000001002400014024000180240001C0240E5
:103B8000003C014080B485B000AF78600B467B807C
:103B90007B681A697B881340002B02D00123FB73DA
:103BA00001E00023FB73FB7B18461437BD465DF82C
:103BB000047B704780B483B000AF78600B467B8095
:103BC00013467B707B78002B03D07A887B689A61E0
:103BD00003E07B881A047B689A6100BF0C37BD46FE
:103BE0005DF8047B7047000080B586B000AF786058
:103BF0007B68002B01D1012364E27B681B6803F022
:103C00000103002B75D0A34B9B6803F00C03042B1E
:103C10000CD0A04B9B6803F00C03082B12D19D4BDA
:103C20005B6803F48003B3F5800F0BD1994B1B68DD
:103C300003F40033002B5BD07B685B68002B57D10B
:103C400001233FE27B685B68B3F5803F06D1914B6F
:103C50001B68904A43F4803313601DE07B685B6807
:103C6000B3F5A02F0CD18B4B1B688A4A43F48023F9
:103C70001360884B1B68874A43F4803313600BE062
:103C8000844B1B68834A23F480331360814B1B6889
:103C9000804A23F4802313607B685B68002B13D079
:103CA000FDF7A0FF386108E0FDF79CFF02463B6985
:103CB000D31A642B01D9032304E2764B1B6803F467
:103CC0000033002BF0D014E0FDF78CFF386108E0E2
:103CD000FDF788FF02463B69D31A642B01D9032301
:103CE000F0E16C4B1B6803F40033002BF0D100E0D3
:103CF00000BF7B681B6803F00203002B63D0654B99
:103D00009B6803F00C03002B0BD0624B9B6803F005
:103D10000C03082B1CD15F4B5B6803F48003002B62
:103D200016D15C4B1B6803F00203002B05D07B68A7
:103D3000DB68012B01D00123C4E1564B1B6823F043
:103D4000F8027B681B69DB00524913430B603AE0C1
:103D50007B68DB68002B20D04F4B01221A60FDF7F7
:103D600041FF386108E0FDF73DFF02463B69D31A89
:103D7000022B01D90323A5E1464B1B6803F0020384
:103D8000002BF0D0434B1B6823F0F8027B681B69C3
:103D9000DB00404913430B6015E03F4B00221A60E3
:103DA000FDF720FF386108E0FDF71CFF02463B6984
:103DB000D31A022B01D9032384E1364B1B6803F08D
:103DC0000203002BF0D17B681B6803F00803002B73
:103DD00030D07B685B69002B16D0304B01221A6013
:103DE000FDF700FF386108E0FDF7FCFE02463B6985
:103DF000D31A022B01D9032364E1264B5B6F03F036
:103E00000203002BF0D015E0244B00221A60FDF7CE
:103E1000E9FE386108E0FDF7E5FE02463B69D31A8A
:103E2000022B01D903234DE11A4B5B6F03F0020310
:103E3000002BF0D17B681B6803F00403002B00F01B
:103E4000A0800023FB75134B1B6C03F08053002BE9
:103E50000FD10023BB600F4B1B6C0E4A43F0805305
:103E600013640C4B1B6C03F08053BB60BB680123D5
:103E7000FB750B4B1B6803F48073002B21D1084B9F
:103E80001B68074A43F480731360FDF7ABFE38618B
:103E900011E000BF0038024000004742800E474258
:103EA00000700040FDF79EFE02463B69D31A022BCC
:103EB00001D9032306E1854B1B6803F48073002BB3
:103EC000F0D07B689B68012B06D1814B1B6F804A29
:103ED00043F0010313671CE07B689B68052B0CD142
:103EE0007B4B1B6F7A4A43F004031367784B1B6FBD
:103EF000774A43F0010313670BE0754B1B6F744A5D
:103F000023F001031367724B1B6F714A23F0040304
:103F100013677B689B68002B15D0FDF763FE386143
:103F20000AE0FDF75FFE02463B69D31A41F2883290
:103F3000934201D90323C5E0654B1B6F03F00203D5
:103F4000002BEED014E0FDF74DFE38610AE0FDF7DE
:103F500049FE02463B69D31A41F28832934201D9A5
:103F60000323AFE05A4B1B6F03F00203002BEED18B
:103F7000FB7D012B05D1564B1B6C554A23F080531A
:103F800013647B689B69002B00F09B80504B9B68FF
:103F900003F00C03082B5CD07B689B69022B41D19A
:103FA0004C4B00221A60FDF71DFE386108E0FDF75A
:103FB00019FE02463B69D31A022B01D9032381E083
:103FC000434B1B6803F00073002BF0D17B68DA6968
:103FD0007B681B6A1A437B685B6A9B011A437B6898
:103FE0009B6A5B08013B1B041A437B68DB6A1B0668
:103FF000374913434B60374B01221A60FDF7F2FD3E
:10400000386108E0FDF7EEFD02463B69D31A022B4A
:1040100001D9032356E02E4B1B6803F00073002BDD
:10402000F0D04EE02B4B00221A60FDF7DBFD38612B
:1040300008E0FDF7D7FD02463B69D31A022B01D9F0
:1040400003233FE0224B1B6803F00073002BF0D1E9
:1040500037E07B689B69012B01D1012332E01C4BC7
:104060005B68FB607B689B69012B28D0FB6803F4CD
:1040700080027B68DB699A4221D1FB6803F03F0232
:104080007B681B6A9A421AD1FA6847F6C0731340DC
:104090007A68526A9201934211D1FB6803F440326C
:1040A0007B689B6A5B08013B1B049A4207D1FB6853
:1040B00003F070627B68DB6A1B069A4201D0012321
:1040C00000E0002318461837BD4680BD0070004050
:1040D000003802406000474280B584B000AF78608D
:1040E00039607B68002B01D10123CCE0684B1B6851
:1040F00003F007033A689A420CD9654B3A68D2B28A
:104100001A70634B1B6803F007033A689A4201D0A8
:104110000123B8E07B681B6803F00203002B20D06A
:104120007B681B6803F00403002B05D0594B9B6888
:10413000584A43F4E05393607B681B6803F008031C
:10414000002B05D0534B9B68524A43F46043936065
:10415000504B9B6823F0F0027B689B684D491343EA
:104160008B607B681B6803F00103002B44D07B68E5
:104170005B68012B07D1474B1B6803F40033002B0E
:1041800019D101237FE07B685B68022B03D07B6839
:104190005B68032B07D13F4B1B6803F00073002BB8
:1041A00009D101236FE03B4B1B6803F00203002B96
:1041B00001D1012367E0374B9B6823F003027B6842
:1041C0005B68344913438B60FDF70CFDF8600AE02F
:1041D000FDF708FD0246FB68D31A41F2883293428C
:1041E00001D903234FE02B4B9B6803F00C027B6843
:1041F0005B689B009A42EBD1254B1B6803F00703D9
:104200003A689A420CD2224B3A68D2B21A70204BCA
:104210001B6803F007033A689A4201D0012332E099
:104220007B681B6803F00403002B08D0194B9B68C4
:1042300023F4E0527B68DB68164913438B607B688C
:104240001B6803F00803002B09D0124B9B6823F472
:1042500060427B681B69DB000E4913438B6000F0F2
:1042600021F802460B4B9B681B0903F00F030A4918
:10427000CB5C22FA03F3094A1360094B1B6818460A
:10428000FDF7DAFA002318461037BD4680BD00BF9F
:10429000003C02400038024024590208000000108F
:1042A000040000102DE9B04384B000AF00237B6010
:1042B0000023FB6000233B600023BB60674B9B68CF
:1042C00003F00C03082B0DD0082B00F2BD80002B4F
:1042D00002D0042B03D0B7E0614BBB60B7E0614B69
:1042E000BB60B4E05D4B5B6803F03F037B605B4BFE
:1042F0005B6803F48003002B4DD0584B5B689B092F
:104300001A464FF0000340F2FF104FF0000102EA9E
:10431000000803EA0109404649464FF000024FF009
:1043200000034B0143EAD063420110461946B0EB4B
:10433000080061EB09014FF000024FF000038B0110
:1043400043EA90638201121A63EB01034FF000000D
:104350004FF00001D90041EA5271D00002460B46ED
:1043600012EB080243EB09034FF000004FF000018D
:10437000590241EAD251500202460B4610461946F4
:104380007B681A464FF00003FCF75EFC02460B46C2
:104390001346FB604AE0314B5B689B091A464FF0BD
:1043A000000340F2FF104FF0000102EA000403EAAC
:1043B0000105204629464FF000024FF000034B0153
:1043C00043EAD063420110461946001B61EB050128
:1043D0004FF000024FF000038B0143EA906382012B
:1043E000121A63EB01034FF000004FF00001D900F7
:1043F00041EA5271D00002460B46121945EB030305
:104400004FF000004FF00001990241EA92519002F2
:1044100002460B46104619467B681A464FF00003C9
:10442000FCF712FC02460B461346FB600B4B5B6825
:104430001B0C03F0030301335B003B60FA683B682D
:10444000B2FBF3F3BB6002E0054BBB6000BFBB688F
:1044500018461037BD46BDE8B08300BF00380240A3
:104460000024F40000127A0080B400AF034B1B68F4
:104470001846BD465DF8047B704700BF0000001081
:1044800080B500AFFFF7F0FF0246054B9B689B0A23
:1044900003F007030349CB5C22FA03F3184680BDFF
:1044A000003802403459020880B500AFFFF7DCFF46
:1044B0000246054B9B685B0B03F007030349CB5C8B
:1044C00022FA03F3184680BD00380240345902082E
:1044D00080B483B000AF786039607B680F221A60C7
:1044E000124B9B6803F003027B685A600F4B9B687A
:1044F00003F0F0027B689A600C4B9B6803F4E05277
:104500007B68DA60094B9B68DB0803F4E0527B6848
:104510001A61074B1B6803F007023B681A6000BF73
:104520000C37BD465DF8047B704700BF0038024081
:10453000003C024080B582B000AF78607B68002B01
:1045400001D101237BE07B685B6A002B08D17B688B
:104550005B68B3F5827F09D07B680022DA6105E0F1
:104560007B6800221A617B6800225A617B68002206
:104570009A627B6893F85130DBB2002B06D17B68DE
:10458000002283F850207868FCF7FCFF7B68022249
:1045900083F851207B681B681A687B681B6822F0CF
:1045A00040021A607B685B6803F482727B689B68D8
:1045B00003F404431A437B68DB6803F400631A4383
:1045C0007B681B6903F002031A437B685B6903F095
:1045D00001031A437B689B6903F400731A437B68E9
:1045E000DB6903F038031A437B681B6A03F080031E
:1045F00042EA03017B689B6A03F400527B681B68F4
:104600000A431A607B689B691B0C03F004017B68FA
:104610005B6A03F010027B681B680A435A607B6880
:104620001B68DA697B681B6822F40062DA617B68C8
:1046300000225A657B68012283F851200023184626
:104640000837BD4680BD80B58CB000AFF860B9605A
:104650007A607B800123FB62002387F82B30FB68A4
:1046600093F85030012B01D102238AE1FB6801222B
:1046700083F85020FDF7B6FA7862FB6893F8513062
:1046800087F82330FB685B68FB617B887B8397F846
:104690002330012B0FD0FB69B3F5827F07D1FB6874
:1046A0009B68002B03D197F82330042B03D00223FF
:1046B00087F82B305BE1BB68002B05D07B68002BB3
:1046C00002D07B88002B03D1012387F82B304EE1E9
:1046D000FB6893F85130DBB2042B03D0FB68052252
:1046E00083F85120FB6800225A65FB687A689A6358
:1046F000FB687A88DA87FB687A889A87FB68BA68E9
:104700001A63FB687A88DA86FB687A889A86FB687F
:1047100000221A64FB6800225A64FB681B681B684D
:1047200003F04003402B07D0FB681B681A68FB6846
:104730001B6842F040021A60FB68DB68B3F5006F4B
:1047400078D1FB685B68002B02D07B8B012B66D194
:10475000FB681B6B1A88FB681B68DA60FB681B6BC5
:104760009A1CFB681A63FB68DB8E9BB2013B9AB212
:10477000FB68DA8653E0FB681B689B6803F0020362
:10478000022B1BD1FB68DB8E9BB2002B16D0FB6A81
:10479000012B13D1FB681B6B1A88FB681B68DA605E
:1047A000FB681B6B9A1CFB681A63FB68DB8E9BB271
:1047B000013B9AB2FB68DA860023FB62FB681B6848
:1047C0009B6803F00103012B19D1FB68DB8F9BB2BF
:1047D000002B14D0FB681B68DA68FB689B6B92B2F5
:1047E0001A80FB689B6B9A1CFB689A63FB68DB8FE3
:1047F0009BB2013B9AB2FB68DA870123FB62FDF7AB
:10480000F1F902467B6AD31ABA6B9A4207D8BB6B9E
:10481000B3F1FF3F03D0032387F82B30A7E0FB68F9
:10482000DB8E9BB2002BA6D1FB68DB8F9BB2002BEB
:10483000A1D17CE0FB685B68002B02D07B8B012B55
:104840006BD1FB681A6BFB681B680C3312781A700B
:10485000FB681B6B5A1CFB681A63FB68DB8E9BB200
:10486000013B9AB2FB68DA8657E0FB681B689B68DD
:1048700003F00203022B1CD1FB68DB8E9BB2002BE2
:1048800017D0FB6A012B14D1FB681A6BFB681B68FD
:104890000C3312781A70FB681B6B5A1CFB681A6386
:1048A000FB68DB8E9BB2013B9AB2FB68DA86002381
:1048B000FB62FB681B689B6803F00103012B19D1A5
:1048C000FB68DB8F9BB2002B14D0FB681B68DA6897
:1048D000FB689B6BD2B21A70FB689B6B5A1CFB681F
:1048E0009A63FB68DB8F9BB2013B9AB2FB68DA8765
:1048F0000123FB62FDF776F902467B6AD31ABA6B95
:104900009A4203D8BB6BB3F1FF3F02D1BB6B002BC4
:1049100003D1032387F82B3029E0FB68DB8E9BB2A1
:10492000002BA2D1FB68DB8F9BB2002B9DD17A6A52
:10493000B96BF86800F0B2F80346002B06D00123EB
:1049400087F82B30FB6820225A6510E0FB689B68D3
:10495000002B0BD100237B61FB681B68DB687B614C
:10496000FB681B689B687B617B6900E000BFFB689C
:10497000012283F85120FB68002283F8502097F829
:104980002B3018463037BD4680BD000080B588B05A
:1049900000AFF860B9603B601346FB71FDF722F988
:1049A0000246BB6A9B1A3A681344FB61FDF71AF989
:1049B000B861394B1B685B011B0DFA6902FB03F3FD
:1049C0007B6154E03B68B3F1FF3F50D0FDF70AF93B
:1049D0000246BB69D31AFA699A4202D9FB69002BD5
:1049E0003DD1FB681B685A68FB681B6822F0E00237
:1049F0005A60FB685B68B3F5827F11D1FB689B68E6
:104A0000B3F5004F04D0FB689B68B3F5806F07D106
:104A1000FB681B681A68FB681B6822F040021A607A
:104A2000FB689B6AB3F5005F0FD1FB681B681A68CF
:104A3000FB681B6822F400521A60FB681B681A6846
:104A4000FB681B6842F400521A60FB68012283F87D
:104A50005120FB68002283F85020032317E07B6974
:104A6000002B01D10023FB617B69013B7B61FB686B
:104A70001B689A68BB681340BA689A420CBF01234E
:104A80000023DBB21A46FB799A429BD100231846D9
:104A90002037BD4680BD00BF0000001080B588B043
:104AA00002AFF860B9607A601B4B1B681B4AA2FB1F
:104AB00003235B0D4FF47A7202FB03F37B61FB6807
:104AC0005B68B3F5827F12D17B680093BB680022DC
:104AD0008021F868FFF75AFF0346002B16D0FB68C9
:104AE0005B6D43F02002FB685A6503230FE07B698E
:104AF000002B0AD07B69013B7B61FB681B689B68CC
:104B000003F08003802BF2D000E000BF00231846A2
:104B10001837BD4680BD00BF00000010819F5E16A3
:104B200080B582B000AF78607B68002B01D1012393
:104B300041E07B6893F83D30DBB2002B06D17B6807
:104B4000002283F83C207868FCF7CAFD7B680222CB
:104B500083F83D207B681A687B6804331946104649
:104B600000F0FEFA7B68012283F846207B68012270
:104B700083F83E207B68012283F83F207B68012276
:104B800083F840207B68012283F841207B68012262
:104B900083F842207B68012283F843207B6801224E
:104BA00083F844207B68012283F845207B6801223A
:104BB00083F83D20002318460837BD4680BD00001D
:104BC00080B485B000AF78607B6893F83D30DBB28D
:104BD000012B01D0012346E07B68022283F83D20AF
:104BE0007B681B68234A934222D07B681B68B3F121
:104BF000804F1DD07B681B681F4A934218D07B688A
:104C00001B681E4A934213D07B681B681C4A934260
:104C10000ED07B681B681B4A934209D07B681B68D7
:104C2000194A934204D07B681B68184A934211D1F9
:104C30007B681B689B6803F00703FB60FB68062B1F
:104C400010D07B681B681A687B681B6842F0010201
:104C50001A6007E07B681B681A687B681B6842F073
:104C600001021A60002318461437BD465DF8047B24
:104C7000704700BF000001400004004000080040F1
:104C8000000C0040000401400040014000180040BA
:104C900080B485B000AF78607B6893F83D30DBB2BC
:104CA000012B01D001234EE07B68022283F83D20D6
:104CB0007B681B68DA687B681B6842F00102DA6077
:104CC0007B681B68234A934222D07B681B68B3F140
:104CD000804F1DD07B681B681F4A934218D07B68A9
:104CE0001B681E4A934213D07B681B681C4A934280
:104CF0000ED07B681B681B4A934209D07B681B68F7
:104D0000194A934204D07B681B68184A934211D118
:104D10007B681B689B6803F00703FB60FB68062B3E
:104D200010D07B681B681A687B681B6842F0010220
:104D30001A6007E07B681B681A687B681B6842F092
:104D400001021A60002318461437BD465DF8047B43
:104D5000704700BF00000140000400400008004010
:104D6000000C0040000401400040014000180040D9
:104D700080B582B000AF78607B681B681B6903F068
:104D80000203022B22D17B681B68DB6803F002035D
:104D9000022B1BD17B681B686FF002021A617B68D3
:104DA00001221A777B681B689B6903F00303002BC1
:104DB00003D0786800F0B5F905E0786800F0A7F94D
:104DC000786800F0B8F97B6800221A777B681B6866
:104DD0001B6903F00403042B22D17B681B68DB688A
:104DE00003F00403042B1BD17B681B686FF00402E3
:104DF0001A617B6802221A777B681B689B6903F43F
:104E00004073002B03D0786800F08BF905E07868D8
:104E100000F07DF9786800F08EF97B6800221A773F
:104E20007B681B681B6903F00803082B22D17B6891
:104E30001B68DB6803F00803082B1BD17B681B6829
:104E40006FF008021A617B6804221A777B681B687E
:104E5000DB6903F00303002B03D0786800F061F9ED
:104E600005E0786800F053F9786800F064F97B6831
:104E700000221A777B681B681B6903F01003102B54
:104E800022D17B681B68DB6803F01003102B1BD159
:104E90007B681B686FF010021A617B6808221A7722
:104EA0007B681B68DB6903F44073002B03D07868D0
:104EB00000F037F905E0786800F029F9786800F02B
:104EC0003AF97B6800221A777B681B681B6903F03C
:104ED0000103012B0ED17B681B68DB6803F0010323
:104EE000012B07D17B681B686FF001021A6178689B
:104EF000FCF7FAFA7B681B681B6903F08003802BC0
:104F00000ED17B681B68DB6803F08003802B07D120
:104F10007B681B686FF080021A61786800F0E0FA25
:104F20007B681B681B6903F04003402B0ED17B6834
:104F30001B68DB6803F04003402B07D17B681B68CC
:104F40006FF040021A61786800F0FFF87B681B6818
:104F50001B6903F02003202B0ED17B681B68DB68E4
:104F600003F02003202B07D17B681B686FF0200221
:104F70001A61786800F0AAFA00BF0837BD4680BD04
:104F800080B584B000AF786039600023FB737B6824
:104F900093F83C30012B01D10223B4E07B6801225D
:104FA00083F83C207B68022283F83D207B681B68E5
:104FB0009B68BB60BB6823F07703BB60BB6823F4CE
:104FC0007F43BB607B681B68BA689A603B681B685C
:104FD000B3F5005F3ED0B3F5005F00F28780B3F514
:104FE000805F00F08680B3F5805F7FD8702B1AD089
:104FF000702B7BD8602B50D0602B77D8502B3CD0B7
:10500000502B73D8402B58D0402B6FD8302B64D006
:10501000302B6BD8202B60D0202B67D8002B5CD096
:10502000102B5AD062E07B6818683B6899683B682F
:105030005A683B68DB6800F0ADF97B681B689B68C9
:10504000BB60BB6843F07703BB607B681B68BA68D2
:105050009A604FE07B6818683B6899683B685A68BB
:105060003B68DB6800F096F97B681B689A687B6890
:105070001B6842F480429A603CE07B6818683B6899
:1050800059683B68DB681A4600F00AF97B681B68C0
:105090005021184600F063F92CE07B6818683B68E3
:1050A00059683B68DB681A4600F029F97B681B6881
:1050B0006021184600F053F91CE07B6818683B68D3
:1050C00059683B68DB681A4600F0EAF87B681B68A1
:1050D0004021184600F043F90CE07B681A683B68F1
:1050E0001B681946104600F03AF903E00123FB73F0
:1050F00000E000BF7B68012283F83D207B6800222E
:1051000083F83C20FB7B18461037BD4680BD80B439
:1051100083B000AF786000BF0C37BD465DF8047BFC
:10512000704780B483B000AF786000BF0C37BD46D5
:105130005DF8047B704780B483B000AF786000BF37
:105140000C37BD465DF8047B704780B483B000AF78
:10515000786000BF0C37BD465DF8047B70470000E7
:1051600080B485B000AF786039607B681B68FB60F5
:105170007B68404A934213D07B68B3F1804F0FD0D5
:105180007B683D4A93420BD07B683C4A934207D0F0
:105190007B683B4A934203D07B683A4A934208D1EA
:1051A000FB6823F07003FB603B685B68FA6813439D
:1051B000FB607B682F4A93422BD07B68B3F1804F12
:1051C00027D07B682C4A934223D07B682B4A93429A
:1051D0001FD07B682A4A93421BD07B68294A93429E
:1051E00017D07B68284A934213D07B68274A9342A2
:1051F0000FD07B68264A93420BD07B68254A9342A6
:1052000007D07B68244A934203D07B68234A9342A9
:1052100008D1FB6823F44073FB603B68DB68FA68E5
:105220001343FB60FB6823F080023B685B69134318
:10523000FB607B68FA681A603B689A687B68DA6290
:105240003B681A687B689A627B680A4A934203D07B
:105250007B680C4A934203D13B681A697B681A63E6
:105260007B6801225A6100BF1437BD465DF8047B9C
:10527000704700BF000001400004004000080040EB
:10528000000C004000040140004001400044014087
:105290000048014000180040001C00400020004071
:1052A00080B487B000AFF860B9607A60FB681B6AB1
:1052B0007B61FB681B6A23F00102FB681A62FB68D2
:1052C0009B693B613B6923F0F0033B617B681B01F9
:1052D0003A6913433B617B6923F00A037B617A6976
:1052E000BB6813437B61FB683A699A61FB687A6922
:1052F0001A6200BF1C37BD465DF8047B704780B45E
:1053000087B000AFF860B9607A60FB681B6A23F071
:105310001002FB681A62FB689B697B61FB681B6A71
:105320003B617B6923F470437B617B681B037A6973
:1053300013437B613B6923F0A0033B61BB681B0106
:105340003A6913433B61FB687A699A61FB683A6981
:105350001A6200BF1C37BD465DF8047B704780B4FD
:1053600085B000AF786039607B689B68FB60FB6844
:1053700023F07003FB603A68FB68134343F00703B4
:10538000FB607B68FA689A6000BF1437BD465DF821
:10539000047B704780B487B000AFF860B9607A6072
:1053A0003B60FB689B687B617B6923F47F437B6187
:1053B0003B681A027B681A43BB6813437A6913433C
:1053C0007B61FB687A699A6000BF1C37BD465DF857
:1053D000047B704780B485B000AF786039607B682B
:1053E00093F83C30012B01D102235AE07B68012263
:1053F00083F83C207B68022283F83D207B681B6891
:105400005B68FB607B681B689B68BB60FB6823F084
:105410007003FB603B681B68FA681343FB607B68A2
:105420001B68FA685A607B681B68214A934222D045
:105430007B681B68B3F1804F1DD07B681B681D4AD9
:10544000934218D07B681B681B4A934213D07B6839
:105450001B681A4A93420ED07B681B68184A934215
:1054600009D07B681B68174A934204D07B681B688D
:10547000154A93420CD1BB6823F08003BB603B68A4
:105480005B68BA681343BB607B681B68BA689A6044
:105490007B68012283F83D207B68002283F83C2052
:1054A000002318461437BD465DF8047B704700BFE3
:1054B000000001400004004000080040000C0040D3
:1054C00000040140004001400018004080B483B057
:1054D00000AF786000BF0C37BD465DF8047B7047B5
:1054E00080B483B000AF786000BF0C37BD465DF874
:1054F000047B704780B582B000AF78607B68002B7A
:1055000001D101233FE07B6893F83D30DBB2002BF3
:1055100006D17B68002283F83C207868FCF73CF9D0
:105520007B68242283F83D207B681B68DA687B68EF
:105530001B6822F40052DA60786800F07BFC7B681C
:105540001B681A697B681B6822F490421A617B68A9
:105550001B685A697B681B6822F02A025A617B68C3
:105560001B68DA687B681B6842F40052DA607B686B
:1055700000221A647B68202283F83D207B68202269
:1055800083F83E20002318460837BD4680BD000042
:1055900080B5BAB000AF78607B681B681B68C7F83D
:1055A000E4307B681B68DB68C7F8E0307B681B6809
:1055B0005B69C7F8DC300023C7F8D8300023C7F890
:1055C000D430D7F8E43003F00F03C7F8D830D7F859
:1055D000D830002B0FD1D7F8E43003F02003002B94
:1055E00009D0D7F8E03003F02003002B03D078680F
:1055F00000F065FB56E2D7F8D830002B00F0DE80D3
:10560000D7F8DC3003F00103002B06D1D7F8E030E7
:1056100003F49073002B00F0D180D7F8E43003F04E
:105620000103002B0BD0D7F8E03003F48073002B7C
:1056300005D07B681B6C43F001027B681A64D7F8C5
:10564000E43003F00403002B0BD0D7F8DC3003F078
:105650000103002B05D07B681B6C43F002027B68C2
:105660001A64D7F8E43003F00203002B0BD0D7F80C
:10567000DC3003F00103002B05D07B681B6C43F08A
:1056800004027B681A64D7F8E43003F00803002BA7
:1056900011D0D7F8E03003F02003002B05D1D7F864
:1056A000DC3003F00103002B05D07B681B6C43F05A
:1056B00008027B681A647B681B6C002B00F0ED818C
:1056C000D7F8E43003F02003002B08D0D7F8E030FF
:1056D00003F02003002B02D0786800F0F0FA7B681A
:1056E0001B685B6903F04003402B0CBF01230023C0
:1056F000DBB2C7F8D4307B681B6C03F00803002BC7
:1057000003D1D7F8D430002B4FD0786800F0F8F9E7
:105710007B681B685B6903F04003402B41D17B68C9
:105720001B681433C7F89C30D7F89C3053E8003F0F
:10573000C7F89830D7F8983023F04003C7F8D03036
:105740007B681B681433D7F8D020C7F8A820C7F8A7
:10575000A430D7F8A410D7F8A82041E80023C7F850
:10576000A030D7F8A030002BD9D17B689B6B002BE1
:1057700013D07B689B6B7D4A1A657B689B6B1846D0
:10578000FCF760FC0346002B16D07B689B6B1B6DFF
:105790007A68926B104698470EE0786800F09AF9A4
:1057A0000AE0786800F096F906E0786800F092F96F
:1057B0007B6800221A6470E100BF6EE17B681B6B9E
:1057C000012B40F04A81D7F8E43003F01003002B9E
:1057D00000F04381D7F8E03003F01003002B00F015
:1057E0003C810023BB607B681B681B68BB607B68D7
:1057F0001B685B68BB60BB687B681B685B6903F008
:105800004003402B40F0B4807B689B6B1B685B6857
:10581000A7F8BE30B7F8BE30002B00F040817B689F
:105820009B8DB7F8BE209A4280F039817B68B7F82B
:10583000BE20DA857B689B6BDB69B3F5807F00F067
:1058400088807B681B680C33C7F88830D7F88830AD
:1058500053E8003FC7F88430D7F8843023F48073CE
:10586000C7F8B8307B681B680C33D7F8B820C7F886
:105870009420C7F89030D7F89010D7F8942041E8DA
:105880000023C7F88C30D7F88C30002BD9D17B6837
:105890001B6814337B677B6F53E8003F3B673B6FAC
:1058A00023F00103C7F8B4307B681B681433D7F8C2
:1058B000B420C7F88020FB67F96FD7F8802041E853
:1058C0000023BB67BB6F002BE1D17B681B681433DF
:1058D0003B663B6E53E8003FFB65FB6D23F04003E6
:1058E000C7F8B0307B681B681433D7F8B020FA666D
:1058F000BB66B96EFA6E41E800237B667B6E002BB7
:10590000E3D17B68202283F83E207B6800221A6363
:105910007B681B680C33FB64FB6C53E8003FBB6483
:10592000BB6C23F01003C7F8AC307B681B680C33EA
:10593000D7F8AC20BA657B65796DBA6D41E8002374
:105940003B653B6D002BE3D17B689B6B1846FCF7F6
:1059500009FB7B689A8D7B68DB8D9BB2D31A9BB267
:105960001946786800F0C0F899E000BFC75B0008EE
:105970007B689A8D7B68DB8D9BB2D31AA7F8CE30FB
:105980007B68DB8D9BB2002B00F08B80B7F8CE30AC
:10599000002B00F086807B681B680C33BB63BB6BFD
:1059A00053E8003F7B637B6B23F49073C7F8C830E8
:1059B0007B681B680C33D7F8C8207A643B64396C69
:1059C0007A6C41E80023FB63FB6B002BE3D17B681F
:1059D0001B6814337B627B6A53E8003F3B623B6A7F
:1059E00023F00103C7F8C4307B681B681433D7F871
:1059F000C4203A63FB62F96A3A6B41E80023BB6258
:105A0000BB6A002BE3D17B68202283F83E207B68B1
:105A100000221A637B681B680C333B613B6953E8C7
:105A2000003FFB60FB6823F01003C7F8C0307B68C1
:105A30001B680C33D7F8C020FA61BB61B969FA69F9
:105A400041E800237B617B69002BE3D1B7F8CE30BE
:105A50001946786800F048F823E0D7F8E43003F0FE
:105A60008003002B09D0D7F8E03003F08003002B2F
:105A700003D0786800F0BBF814E0D7F8E43003F006
:105A80004003002B0ED0D7F8E03003F04003002B8A
:105A900008D0786800F0FBF804E000BF02E000BF27
:105AA00000E000BFE837BD4680BD00BF80B483B0D2
:105AB00000AF786000BF0C37BD465DF8047B7047CF
:105AC00080B483B000AF786000BF0C37BD465DF88E
:105AD000047B704780B483B000AF786000BF0C37A0
